{
  "_format": "hh-sol-artifact-1",
  "contractName": "CopyrightRegistry",
  "sourceName": "contracts/core/CopyrightRegistry.sol",
  "abi": [
    {
      "inputs": [],
      "stateMutability": "nonpayable",
      "type": "constructor"
    },
    {
      "inputs": [
        {
          "internalType": "address",
          "name": "owner",
          "type": "address"
        }
      ],
      "name": "OwnableInvalidOwner",
      "type": "error"
    },
    {
      "inputs": [
        {
          "internalType": "address",
          "name": "account",
          "type": "address"
        }
      ],
      "name": "OwnableUnauthorizedAccount",
      "type": "error"
    },
    {
      "inputs": [],
      "name": "ReentrancyGuardReentrantCall",
      "type": "error"
    },
    {
      "anonymous": false,
      "inputs": [
        {
          "indexed": true,
          "internalType": "bytes32",
          "name": "contentId",
          "type": "bytes32"
        },
        {
          "indexed": true,
          "internalType": "address",
          "name": "creator",
          "type": "address"
        },
        {
          "indexed": false,
          "internalType": "string",
          "name": "ipfsCID",
          "type": "string"
        },
        {
          "indexed": false,
          "internalType": "string",
          "name": "metadataCID",
          "type": "string"
        },
        {
          "indexed": false,
          "internalType": "uint256",
          "name": "royaltyPercentage",
          "type": "uint256"
        },
        {
          "indexed": false,
          "internalType": "uint256",
          "name": "timestamp",
          "type": "uint256"
        }
      ],
      "name": "CopyrightRegistered",
      "type": "event"
    },
    {
      "anonymous": false,
      "inputs": [
        {
          "indexed": true,
          "internalType": "bytes32",
          "name": "contentId",
          "type": "bytes32"
        },
        {
          "indexed": true,
          "internalType": "address",
          "name": "creator",
          "type": "address"
        }
      ],
      "name": "CopyrightRevoked",
      "type": "event"
    },
    {
      "anonymous": false,
      "inputs": [
        {
          "indexed": true,
          "internalType": "address",
          "name": "previousOwner",
          "type": "address"
        },
        {
          "indexed": true,
          "internalType": "address",
          "name": "newOwner",
          "type": "address"
        }
      ],
      "name": "OwnershipTransferred",
      "type": "event"
    },
    {
      "inputs": [],
      "name": "MAX_ROYALTY_BPS",
      "outputs": [
        {
          "internalType": "uint256",
          "name": "",
          "type": "uint256"
        }
      ],
      "stateMutability": "view",
      "type": "function"
    },
    {
      "inputs": [
        {
          "internalType": "bytes32",
          "name": "",
          "type": "bytes32"
        }
      ],
      "name": "copyrights",
      "outputs": [
        {
          "internalType": "address",
          "name": "creator",
          "type": "address"
        },
        {
          "internalType": "string",
          "name": "ipfsCID",
          "type": "string"
        },
        {
          "internalType": "string",
          "name": "metadataCID",
          "type": "string"
        },
        {
          "internalType": "string",
          "name": "contentHash",
          "type": "string"
        },
        {
          "internalType": "uint256",
          "name": "royaltyPercentage",
          "type": "uint256"
        },
        {
          "internalType": "uint256",
          "name": "timestamp",
          "type": "uint256"
        },
        {
          "internalType": "bool",
          "name": "isActive",
          "type": "bool"
        }
      ],
      "stateMutability": "view",
      "type": "function"
    },
    {
      "inputs": [
        {
          "internalType": "address",
          "name": "",
          "type": "address"
        },
        {
          "internalType": "uint256",
          "name": "",
          "type": "uint256"
        }
      ],
      "name": "creatorWorks",
      "outputs": [
        {
          "internalType": "bytes32",
          "name": "",
          "type": "bytes32"
        }
      ],
      "stateMutability": "view",
      "type": "function"
    },
    {
      "inputs": [
        {
          "internalType": "bytes32",
          "name": "_contentId",
          "type": "bytes32"
        }
      ],
      "name": "getCopyright",
      "outputs": [
        {
          "components": [
            {
              "internalType": "address",
              "name": "creator",
              "type": "address"
            },
            {
              "internalType": "string",
              "name": "ipfsCID",
              "type": "string"
            },
            {
              "internalType": "string",
              "name": "metadataCID",
              "type": "string"
            },
            {
              "internalType": "string",
              "name": "contentHash",
              "type": "string"
            },
            {
              "internalType": "uint256",
              "name": "royaltyPercentage",
              "type": "uint256"
            },
            {
              "internalType": "uint256",
              "name": "timestamp",
              "type": "uint256"
            },
            {
              "internalType": "bool",
              "name": "isActive",
              "type": "bool"
            }
          ],
          "internalType": "struct CopyrightRegistry.Copyright",
          "name": "",
          "type": "tuple"
        }
      ],
      "stateMutability": "view",
      "type": "function"
    },
    {
      "inputs": [
        {
          "internalType": "address",
          "name": "_creator",
          "type": "address"
        }
      ],
      "name": "getCreatorWorks",
      "outputs": [
        {
          "internalType": "bytes32[]",
          "name": "",
          "type": "bytes32[]"
        }
      ],
      "stateMutability": "view",
      "type": "function"
    },
    {
      "inputs": [
        {
          "internalType": "string",
          "name": "",
          "type": "string"
        }
      ],
      "name": "ipfsCIDToContentId",
      "outputs": [
        {
          "internalType": "bytes32",
          "name": "",
          "type": "bytes32"
        }
      ],
      "stateMutability": "view",
      "type": "function"
    },
    {
      "inputs": [
        {
          "internalType": "string",
          "name": "_ipfsCID",
          "type": "string"
        }
      ],
      "name": "lookupByCID",
      "outputs": [
        {
          "internalType": "bytes32",
          "name": "",
          "type": "bytes32"
        }
      ],
      "stateMutability": "view",
      "type": "function"
    },
    {
      "inputs": [],
      "name": "owner",
      "outputs": [
        {
          "internalType": "address",
          "name": "",
          "type": "address"
        }
      ],
      "stateMutability": "view",
      "type": "function"
    },
    {
      "inputs": [
        {
          "internalType": "string",
          "name": "_ipfsCID",
          "type": "string"
        },
        {
          "internalType": "string",
          "name": "_metadataCID",
          "type": "string"
        },
        {
          "internalType": "string",
          "name": "_contentHash",
          "type": "string"
        },
        {
          "internalType": "uint256",
          "name": "_royaltyBps",
          "type": "uint256"
        }
      ],
      "name": "registerCopyright",
      "outputs": [
        {
          "internalType": "bytes32",
          "name": "",
          "type": "bytes32"
        }
      ],
      "stateMutability": "nonpayable",
      "type": "function"
    },
    {
      "inputs": [],
      "name": "renounceOwnership",
      "outputs": [],
      "stateMutability": "nonpayable",
      "type": "function"
    },
    {
      "inputs": [
        {
          "internalType": "bytes32",
          "name": "_contentId",
          "type": "bytes32"
        }
      ],
      "name": "revokeCopyright",
      "outputs": [],
      "stateMutability": "nonpayable",
      "type": "function"
    },
    {
      "inputs": [
        {
          "internalType": "address",
          "name": "newOwner",
          "type": "address"
        }
      ],
      "name": "transferOwnership",
      "outputs": [],
      "stateMutability": "nonpayable",
      "type": "function"
    }
  ],
  "bytecode": "0x60806040523480156200001157600080fd5b5033600073ffffffffffffffffffffffffffffffffffffffff168173ffffffffffffffffffffffffffffffffffffffff1603620000885760006040517f1e4fbdf70000000000000000000000000000000000000000000000000000000081526004016200007f9190620001b0565b60405180910390fd5b6200009981620000a760201b60201c565b5060018081905550620001cd565b60008060009054906101000a900473ffffffffffffffffffffffffffffffffffffffff169050816000806101000a81548173ffffffffffffffffffffffffffffffffffffffff021916908373ffffffffffffffffffffffffffffffffffffffff1602179055508173ffffffffffffffffffffffffffffffffffffffff168173ffffffffffffffffffffffffffffffffffffffff167f8be0079c531659141344cd1fd0a4f28419497f9722a3daafe3b4186f6b6457e060405160405180910390a35050565b600073ffffffffffffffffffffffffffffffffffffffff82169050919050565b600062000198826200016b565b9050919050565b620001aa816200018b565b82525050565b6000602082019050620001c760008301846200019f565b92915050565b611d0980620001dd6000396000f3fe608060405234801561001057600080fd5b50600436106100b45760003560e01c80638da5cb5b116100715780638da5cb5b146101a7578063a6d16989146101c5578063b20dedd0146101f5578063e4cffafa14610225578063ede8456314610241578063f2fde38b14610271576100b4565b806313337665146100b95780631762aa51146100e9578063393ca847146101195780633dca40e614610149578063715018a6146101675780638b670af714610171575b600080fd5b6100d360048036038101906100ce919061106a565b61028d565b6040516100e091906110cc565b60405180910390f35b61010360048036038101906100fe919061117b565b6102b5565b60405161011091906110cc565b60405180910390f35b610133600480360381019061012e91906111e7565b6102e6565b6040516101409190611376565b60405180910390f35b61015161054e565b60405161015e91906113a7565b60405180910390f35b61016f610554565b005b61018b600480360381019061018691906111e7565b610568565b60405161019e979695949392919061142a565b60405180910390f35b6101af61076f565b6040516101bc91906114ae565b60405180910390f35b6101df60048036038101906101da919061106a565b610798565b6040516101ec91906110cc565b60405180910390f35b61020f600480360381019061020a91906114c9565b6107c6565b60405161021c91906110cc565b60405180910390f35b61023f600480360381019061023a91906111e7565b610aec565b005b61025b60048036038101906102569190611584565b610c4b565b604051610268919061166f565b60405180910390f35b61028b60048036038101906102869190611584565b610ce2565b005b600060048260405161029f91906116cd565b9081526020016040518091039020549050919050565b600360205281600052604060002081815481106102d157600080fd5b90600052602060002001600091509150505481565b6102ee610ebb565b600260008381526020019081526020016000206040518060e00160405290816000820160009054906101000a900473ffffffffffffffffffffffffffffffffffffffff1673ffffffffffffffffffffffffffffffffffffffff1673ffffffffffffffffffffffffffffffffffffffff16815260200160018201805461037290611713565b80601f016020809104026020016040519081016040528092919081815260200182805461039e90611713565b80156103eb5780601f106103c0576101008083540402835291602001916103eb565b820191906000526020600020905b8154815290600101906020018083116103ce57829003601f168201915b5050505050815260200160028201805461040490611713565b80601f016020809104026020016040519081016040528092919081815260200182805461043090611713565b801561047d5780601f106104525761010080835404028352916020019161047d565b820191906000526020600020905b81548152906001019060200180831161046057829003601f168201915b5050505050815260200160038201805461049690611713565b80601f01602080910402602001604051908101604052809291908181526020018280546104c290611713565b801561050f5780601f106104e45761010080835404028352916020019161050f565b820191906000526020600020905b8154815290600101906020018083116104f257829003601f168201915b5050505050815260200160048201548152602001600582015481526020016006820160009054906101000a900460ff1615151515815250509050919050565b61138881565b61055c610d68565b6105666000610def565b565b60026020528060005260406000206000915090508060000160009054906101000a900473ffffffffffffffffffffffffffffffffffffffff16908060010180546105b190611713565b80601f01602080910402602001604051908101604052809291908181526020018280546105dd90611713565b801561062a5780601f106105ff5761010080835404028352916020019161062a565b820191906000526020600020905b81548152906001019060200180831161060d57829003601f168201915b50505050509080600201805461063f90611713565b80601f016020809104026020016040519081016040528092919081815260200182805461066b90611713565b80156106b85780601f1061068d576101008083540402835291602001916106b8565b820191906000526020600020905b81548152906001019060200180831161069b57829003601f168201915b5050505050908060030180546106cd90611713565b80601f01602080910402602001604051908101604052809291908181526020018280546106f990611713565b80156107465780601f1061071b57610100808354040283529160200191610746565b820191906000526020600020905b81548152906001019060200180831161072957829003601f168201915b5050505050908060040154908060050154908060060160009054906101000a900460ff16905087565b60008060009054906101000a900473ffffffffffffffffffffffffffffffffffffffff16905090565b6004818051602081018201805184825260208301602085012081835280955050505050506000915090505481565b600061138882111561080d576040517f08c379a000000000000000000000000000000000000000000000000000000000815260040161080490611790565b60405180910390fd5b6000855111610851576040517f08c379a0000000000000000000000000000000000000000000000000000000008152600401610848906117fc565b60405180910390fd5b6000801b60048660405161086591906116cd565b908152602001604051809103902054146108b4576040517f08c379a00000000000000000000000000000000000000000000000000000000081526004016108ab90611868565b60405180910390fd5b60008533426040516020016108cb939291906118f1565b6040516020818303038152906040528051906020012090506040518060e001604052803373ffffffffffffffffffffffffffffffffffffffff168152602001878152602001868152602001858152602001848152602001428152602001600115158152506002600083815260200190815260200160002060008201518160000160006101000a81548173ffffffffffffffffffffffffffffffffffffffff021916908373ffffffffffffffffffffffffffffffffffffffff160217905550602082015181600101908161099e9190611ad6565b5060408201518160020190816109b49190611ad6565b5060608201518160030190816109ca9190611ad6565b506080820151816004015560a0820151816005015560c08201518160060160006101000a81548160ff021916908315150217905550905050600360003373ffffffffffffffffffffffffffffffffffffffff1673ffffffffffffffffffffffffffffffffffffffff16815260200190815260200160002081908060018154018082558091505060019003906000526020600020016000909190919091505580600487604051610a7991906116cd565b9081526020016040518091039020819055503373ffffffffffffffffffffffffffffffffffffffff16817f53a84b5a57196eb9aeceb90e5b19e54821d204ef0889ccf5b8b32c2ebf958b3c88888742604051610ad89493929190611ba8565b60405180910390a380915050949350505050565b60006002600083815260200190815260200160002090503373ffffffffffffffffffffffffffffffffffffffff168160000160009054906101000a900473ffffffffffffffffffffffffffffffffffffffff1673ffffffffffffffffffffffffffffffffffffffff1614610b95576040517f08c379a0000000000000000000000000000000000000000000000000000000008152600401610b8c90611c47565b60405180910390fd5b8060060160009054906101000a900460ff16610be6576040517f08c379a0000000000000000000000000000000000000000000000000000000008152600401610bdd90611cb3565b60405180910390fd5b60008160060160006101000a81548160ff0219169083151502179055503373ffffffffffffffffffffffffffffffffffffffff16827f45fd92b9039cf6aa0a0c52a3c822ef1d3fcf38a252ccd231b597f4de82dc27c760405160405180910390a35050565b6060600360008373ffffffffffffffffffffffffffffffffffffffff1673ffffffffffffffffffffffffffffffffffffffff168152602001908152602001600020805480602002602001604051908101604052809291908181526020018280548015610cd657602002820191906000526020600020905b815481526020019060010190808311610cc2575b50505050509050919050565b610cea610d68565b600073ffffffffffffffffffffffffffffffffffffffff168173ffffffffffffffffffffffffffffffffffffffff1603610d5c5760006040517f1e4fbdf7000000000000000000000000000000000000000000000000000000008152600401610d5391906114ae565b60405180910390fd5b610d6581610def565b50565b610d70610eb3565b73ffffffffffffffffffffffffffffffffffffffff16610d8e61076f565b73ffffffffffffffffffffffffffffffffffffffff1614610ded57610db1610eb3565b6040517f118cdaa7000000000000000000000000000000000000000000000000000000008152600401610de491906114ae565b60405180910390fd5b565b60008060009054906101000a900473ffffffffffffffffffffffffffffffffffffffff169050816000806101000a81548173ffffffffffffffffffffffffffffffffffffffff021916908373ffffffffffffffffffffffffffffffffffffffff1602179055508173ffffffffffffffffffffffffffffffffffffffff168173ffffffffffffffffffffffffffffffffffffffff167f8be0079c531659141344cd1fd0a4f28419497f9722a3daafe3b4186f6b6457e060405160405180910390a35050565b600033905090565b6040518060e00160405280600073ffffffffffffffffffffffffffffffffffffffff16815260200160608152602001606081526020016060815260200160008152602001600081526020016000151581525090565b6000604051905090565b600080fd5b600080fd5b600080fd5b600080fd5b6000601f19601f8301169050919050565b7f4e487b7100000000000000000000000000000000000000000000000000000000600052604160045260246000fd5b610f7782610f2e565b810181811067ffffffffffffffff82111715610f9657610f95610f3f565b5b80604052505050565b6000610fa9610f10565b9050610fb58282610f6e565b919050565b600067ffffffffffffffff821115610fd557610fd4610f3f565b5b610fde82610f2e565b9050602081019050919050565b82818337600083830152505050565b600061100d61100884610fba565b610f9f565b90508281526020810184848401111561102957611028610f29565b5b611034848285610feb565b509392505050565b600082601f83011261105157611050610f24565b5b8135611061848260208601610ffa565b91505092915050565b6000602082840312156110805761107f610f1a565b5b600082013567ffffffffffffffff81111561109e5761109d610f1f565b5b6110aa8482850161103c565b91505092915050565b6000819050919050565b6110c6816110b3565b82525050565b60006020820190506110e160008301846110bd565b92915050565b600073ffffffffffffffffffffffffffffffffffffffff82169050919050565b6000611112826110e7565b9050919050565b61112281611107565b811461112d57600080fd5b50565b60008135905061113f81611119565b92915050565b6000819050919050565b61115881611145565b811461116357600080fd5b50565b6000813590506111758161114f565b92915050565b6000806040838503121561119257611191610f1a565b5b60006111a085828601611130565b92505060206111b185828601611166565b9150509250929050565b6111c4816110b3565b81146111cf57600080fd5b50565b6000813590506111e1816111bb565b92915050565b6000602082840312156111fd576111fc610f1a565b5b600061120b848285016111d2565b91505092915050565b61121d81611107565b82525050565b600081519050919050565b600082825260208201905092915050565b60005b8381101561125d578082015181840152602081019050611242565b60008484015250505050565b600061127482611223565b61127e818561122e565b935061128e81856020860161123f565b61129781610f2e565b840191505092915050565b6112ab81611145565b82525050565b60008115159050919050565b6112c6816112b1565b82525050565b600060e0830160008301516112e46000860182611214565b50602083015184820360208601526112fc8282611269565b915050604083015184820360408601526113168282611269565b915050606083015184820360608601526113308282611269565b915050608083015161134560808601826112a2565b5060a083015161135860a08601826112a2565b5060c083015161136b60c08601826112bd565b508091505092915050565b6000602082019050818103600083015261139081846112cc565b905092915050565b6113a181611145565b82525050565b60006020820190506113bc6000830184611398565b92915050565b6113cb81611107565b82525050565b600082825260208201905092915050565b60006113ed82611223565b6113f781856113d1565b935061140781856020860161123f565b61141081610f2e565b840191505092915050565b611424816112b1565b82525050565b600060e08201905061143f600083018a6113c2565b818103602083015261145181896113e2565b9050818103604083015261146581886113e2565b9050818103606083015261147981876113e2565b90506114886080830186611398565b61149560a0830185611398565b6114a260c083018461141b565b98975050505050505050565b60006020820190506114c360008301846113c2565b92915050565b600080600080608085870312156114e3576114e2610f1a565b5b600085013567ffffffffffffffff81111561150157611500610f1f565b5b61150d8782880161103c565b945050602085013567ffffffffffffffff81111561152e5761152d610f1f565b5b61153a8782880161103c565b935050604085013567ffffffffffffffff81111561155b5761155a610f1f565b5b6115678782880161103c565b925050606061157887828801611166565b91505092959194509250565b60006020828403121561159a57611599610f1a565b5b60006115a884828501611130565b91505092915050565b600081519050919050565b600082825260208201905092915050565b6000819050602082019050919050565b6115e6816110b3565b82525050565b60006115f883836115dd565b60208301905092915050565b6000602082019050919050565b600061161c826115b1565b61162681856115bc565b9350611631836115cd565b8060005b8381101561166257815161164988826115ec565b975061165483611604565b925050600181019050611635565b5085935050505092915050565b600060208201905081810360008301526116898184611611565b905092915050565b600081905092915050565b60006116a782611223565b6116b18185611691565b93506116c181856020860161123f565b80840191505092915050565b60006116d9828461169c565b915081905092915050565b7f4e487b7100000000000000000000000000000000000000000000000000000000600052602260045260246000fd5b6000600282049050600182168061172b57607f821691505b60208210810361173e5761173d6116e4565b5b50919050565b7f526f79616c747920746f6f206869676800000000000000000000000000000000600082015250565b600061177a6010836113d1565b915061178582611744565b602082019050919050565b600060208201905081810360008301526117a98161176d565b9050919050565b7f4950465320434944207265717569726564000000000000000000000000000000600082015250565b60006117e66011836113d1565b91506117f1826117b0565b602082019050919050565b60006020820190508181036000830152611815816117d9565b9050919050565b7f43494420616c7265616479207265676973746572656400000000000000000000600082015250565b60006118526016836113d1565b915061185d8261181c565b602082019050919050565b6000602082019050818103600083015261188181611845565b9050919050565b60008160601b9050919050565b60006118a082611888565b9050919050565b60006118b282611895565b9050919050565b6118ca6118c582611107565b6118a7565b82525050565b6000819050919050565b6118eb6118e682611145565b6118d0565b82525050565b60006118fd828661169c565b915061190982856118b9565b60148201915061191982846118da565b602082019150819050949350505050565b60008190508160005260206000209050919050565b60006020601f8301049050919050565b600082821b905092915050565b60006008830261198c7fffffffffffffffffffffffffffffffffffffffffffffffffffffffffffffffff8261194f565b611996868361194f565b95508019841693508086168417925050509392505050565b6000819050919050565b60006119d36119ce6119c984611145565b6119ae565b611145565b9050919050565b6000819050919050565b6119ed836119b8565b611a016119f9826119da565b84845461195c565b825550505050565b600090565b611a16611a09565b611a218184846119e4565b505050565b5b81811015611a4557611a3a600082611a0e565b600181019050611a27565b5050565b601f821115611a8a57611a5b8161192a565b611a648461193f565b81016020851015611a73578190505b611a87611a7f8561193f565b830182611a26565b50505b505050565b600082821c905092915050565b6000611aad60001984600802611a8f565b1980831691505092915050565b6000611ac68383611a9c565b9150826002028217905092915050565b611adf82611223565b67ffffffffffffffff811115611af857611af7610f3f565b5b611b028254611713565b611b0d828285611a49565b600060209050601f831160018114611b405760008415611b2e578287015190505b611b388582611aba565b865550611ba0565b601f198416611b4e8661192a565b60005b82811015611b7657848901518255600182019150602085019450602081019050611b51565b86831015611b935784890151611b8f601f891682611a9c565b8355505b6001600288020188555050505b505050505050565b60006080820190508181036000830152611bc281876113e2565b90508181036020830152611bd681866113e2565b9050611be56040830185611398565b611bf26060830184611398565b95945050505050565b7f4e6f74207468652063726561746f720000000000000000000000000000000000600082015250565b6000611c31600f836113d1565b9150611c3c82611bfb565b602082019050919050565b60006020820190508181036000830152611c6081611c24565b9050919050565b7f416c7265616479207265766f6b65640000000000000000000000000000000000600082015250565b6000611c9d600f836113d1565b9150611ca882611c67565b602082019050919050565b60006020820190508181036000830152611ccc81611c90565b905091905056fea2646970667358221220c9f9479a950d11841188695ed8abfc0c49075f7e4fddcf44f967bd4a91d51cb964736f6c63430008140033",
  "linkReferences": {},
  "deployedLinkReferences": {}
}