{
  "_format": "hh-sol-artifact-1",
  "contractName": "DisputeDAO",
  "sourceName": "contracts/core/DisputeDAO.sol",
  "abi": [
    {
      "inputs": [],
      "stateMutability": "nonpayable",
      "type": "constructor"
    },
    {
      "inputs": [
        {
          "internalType": "address",
          "name": "owner",
          "type": "address"
        }
      ],
      "name": "OwnableInvalidOwner",
      "type": "error"
    },
    {
      "inputs": [
        {
          "internalType": "address",
          "name": "account",
          "type": "address"
        }
      ],
      "name": "OwnableUnauthorizedAccount",
      "type": "error"
    },
    {
      "inputs": [],
      "name": "ReentrancyGuardReentrantCall",
      "type": "error"
    },
    {
      "anonymous": false,
      "inputs": [
        {
          "indexed": true,
          "internalType": "uint256",
          "name": "disputeId",
          "type": "uint256"
        },
        {
          "indexed": true,
          "internalType": "bytes32",
          "name": "contentId",
          "type": "bytes32"
        },
        {
          "indexed": true,
          "internalType": "address",
          "name": "claimant",
          "type": "address"
        },
        {
          "indexed": false,
          "internalType": "address",
          "name": "original",
          "type": "address"
        }
      ],
      "name": "DisputeCreated",
      "type": "event"
    },
    {
      "anonymous": false,
      "inputs": [
        {
          "indexed": true,
          "internalType": "uint256",
          "name": "disputeId",
          "type": "uint256"
        },
        {
          "indexed": false,
          "internalType": "enum DisputeDAO.DisputeStatus",
          "name": "status",
          "type": "uint8"
        }
      ],
      "name": "DisputeResolved",
      "type": "event"
    },
    {
      "anonymous": false,
      "inputs": [
        {
          "indexed": true,
          "internalType": "address",
          "name": "previousOwner",
          "type": "address"
        },
        {
          "indexed": true,
          "internalType": "address",
          "name": "newOwner",
          "type": "address"
        }
      ],
      "name": "OwnershipTransferred",
      "type": "event"
    },
    {
      "anonymous": false,
      "inputs": [
        {
          "indexed": true,
          "internalType": "uint256",
          "name": "disputeId",
          "type": "uint256"
        },
        {
          "indexed": true,
          "internalType": "address",
          "name": "voter",
          "type": "address"
        },
        {
          "indexed": false,
          "internalType": "bool",
          "name": "support",
          "type": "bool"
        }
      ],
      "name": "VoteCast",
      "type": "event"
    },
    {
      "inputs": [
        {
          "internalType": "bytes32",
          "name": "_contentId",
          "type": "bytes32"
        },
        {
          "internalType": "address",
          "name": "_original",
          "type": "address"
        },
        {
          "internalType": "string",
          "name": "_evidence",
          "type": "string"
        }
      ],
      "name": "createDispute",
      "outputs": [
        {
          "internalType": "uint256",
          "name": "",
          "type": "uint256"
        }
      ],
      "stateMutability": "nonpayable",
      "type": "function"
    },
    {
      "inputs": [],
      "name": "disputeCount",
      "outputs": [
        {
          "internalType": "uint256",
          "name": "",
          "type": "uint256"
        }
      ],
      "stateMutability": "view",
      "type": "function"
    },
    {
      "inputs": [
        {
          "internalType": "uint256",
          "name": "",
          "type": "uint256"
        }
      ],
      "name": "disputes",
      "outputs": [
        {
          "internalType": "bytes32",
          "name": "contentId",
          "type": "bytes32"
        },
        {
          "internalType": "address",
          "name": "claimant",
          "type": "address"
        },
        {
          "internalType": "address",
          "name": "original",
          "type": "address"
        },
        {
          "internalType": "string",
          "name": "evidence",
          "type": "string"
        },
        {
          "internalType": "uint256",
          "name": "votesFor",
          "type": "uint256"
        },
        {
          "internalType": "uint256",
          "name": "votesAgainst",
          "type": "uint256"
        },
        {
          "internalType": "uint256",
          "name": "createdAt",
          "type": "uint256"
        },
        {
          "internalType": "enum DisputeDAO.DisputeStatus",
          "name": "status",
          "type": "uint8"
        }
      ],
      "stateMutability": "view",
      "type": "function"
    },
    {
      "inputs": [
        {
          "internalType": "uint256",
          "name": "_disputeId",
          "type": "uint256"
        }
      ],
      "name": "getDispute",
      "outputs": [
        {
          "components": [
            {
              "internalType": "bytes32",
              "name": "contentId",
              "type": "bytes32"
            },
            {
              "internalType": "address",
              "name": "claimant",
              "type": "address"
            },
            {
              "internalType": "address",
              "name": "original",
              "type": "address"
            },
            {
              "internalType": "string",
              "name": "evidence",
              "type": "string"
            },
            {
              "internalType": "uint256",
              "name": "votesFor",
              "type": "uint256"
            },
            {
              "internalType": "uint256",
              "name": "votesAgainst",
              "type": "uint256"
            },
            {
              "internalType": "uint256",
              "name": "createdAt",
              "type": "uint256"
            },
            {
              "internalType": "enum DisputeDAO.DisputeStatus",
              "name": "status",
              "type": "uint8"
            }
          ],
          "internalType": "struct DisputeDAO.Dispute",
          "name": "",
          "type": "tuple"
        }
      ],
      "stateMutability": "view",
      "type": "function"
    },
    {
      "inputs": [
        {
          "internalType": "uint256",
          "name": "",
          "type": "uint256"
        },
        {
          "internalType": "address",
          "name": "",
          "type": "address"
        }
      ],
      "name": "hasVoted",
      "outputs": [
        {
          "internalType": "bool",
          "name": "",
          "type": "bool"
        }
      ],
      "stateMutability": "view",
      "type": "function"
    },
    {
      "inputs": [],
      "name": "owner",
      "outputs": [
        {
          "internalType": "address",
          "name": "",
          "type": "address"
        }
      ],
      "stateMutability": "view",
      "type": "function"
    },
    {
      "inputs": [],
      "name": "quorum",
      "outputs": [
        {
          "internalType": "uint256",
          "name": "",
          "type": "uint256"
        }
      ],
      "stateMutability": "view",
      "type": "function"
    },
    {
      "inputs": [],
      "name": "renounceOwnership",
      "outputs": [],
      "stateMutability": "nonpayable",
      "type": "function"
    },
    {
      "inputs": [
        {
          "internalType": "uint256",
          "name": "_disputeId",
          "type": "uint256"
        }
      ],
      "name": "resolveDispute",
      "outputs": [],
      "stateMutability": "nonpayable",
      "type": "function"
    },
    {
      "inputs": [
        {
          "internalType": "uint256",
          "name": "_newQuorum",
          "type": "uint256"
        }
      ],
      "name": "setQuorum",
      "outputs": [],
      "stateMutability": "nonpayable",
      "type": "function"
    },
    {
      "inputs": [
        {
          "internalType": "uint256",
          "name": "_newPeriod",
          "type": "uint256"
        }
      ],
      "name": "setVotingPeriod",
      "outputs": [],
      "stateMutability": "nonpayable",
      "type": "function"
    },
    {
      "inputs": [
        {
          "internalType": "address",
          "name": "newOwner",
          "type": "address"
        }
      ],
      "name": "transferOwnership",
      "outputs": [],
      "stateMutability": "nonpayable",
      "type": "function"
    },
    {
      "inputs": [
        {
          "internalType": "uint256",
          "name": "_disputeId",
          "type": "uint256"
        },
        {
          "internalType": "bool",
          "name": "_support",
          "type": "bool"
        }
      ],
      "name": "vote",
      "outputs": [],
      "stateMutability": "nonpayable",
      "type": "function"
    },
    {
      "inputs": [],
      "name": "votingPeriod",
      "outputs": [
        {
          "internalType": "uint256",
          "name": "",
          "type": "uint256"
        }
      ],
      "stateMutability": "view",
      "type": "function"
    }
  ],
  "bytecode": "0x608060405262093a8060055560646006553480156200001d57600080fd5b5033600073ffffffffffffffffffffffffffffffffffffffff168173ffffffffffffffffffffffffffffffffffffffff1603620000945760006040517f1e4fbdf70000000000000000000000000000000000000000000000000000000081526004016200008b9190620001bc565b60405180910390fd5b620000a581620000b360201b60201c565b5060018081905550620001d9565b60008060009054906101000a900473ffffffffffffffffffffffffffffffffffffffff169050816000806101000a81548173ffffffffffffffffffffffffffffffffffffffff021916908373ffffffffffffffffffffffffffffffffffffffff1602179055508173ffffffffffffffffffffffffffffffffffffffff168173ffffffffffffffffffffffffffffffffffffffff167f8be0079c531659141344cd1fd0a4f28419497f9722a3daafe3b4186f6b6457e060405160405180910390a35050565b600073ffffffffffffffffffffffffffffffffffffffff82169050919050565b6000620001a48262000177565b9050919050565b620001b68162000197565b82525050565b6000602082019050620001d36000830184620001ab565b92915050565b611d1f80620001e96000396000f3fe608060405234801561001057600080fd5b50600436106100ea5760003560e01c8063c1ba4e591161008c578063e3a96cbd11610066578063e3a96cbd1461022c578063ea0217cf1461025c578063ed4766ac14610278578063f2fde38b146102a8576100ea565b8063c1ba4e59146101d8578063c2b7b868146101f4578063c9d27afe14610210576100ea565b8063564a565d116100c8578063564a565d1461015b578063715018a6146101925780638da5cb5b1461019c578063a28889e1146101ba576100ea565b806302a251a3146100ef5780631703a0181461010d578063438596321461012b575b600080fd5b6100f76102c4565b6040516101049190610fd1565b60405180910390f35b6101156102ca565b6040516101229190610fd1565b60405180910390f35b6101456004803603810190610140919061108a565b6102d0565b60405161015291906110e5565b60405180910390f35b61017560048036038101906101709190611100565b6102ff565b60405161018998979695949392919061125c565b60405180910390f35b61019a61041c565b005b6101a4610430565b6040516101b191906112e1565b60405180910390f35b6101c2610459565b6040516101cf9190610fd1565b60405180910390f35b6101f260048036038101906101ed9190611100565b61045f565b005b61020e60048036038101906102099190611100565b610471565b005b61022a60048036038101906102259190611328565b6106b2565b005b61024660048036038101906102419190611100565b610974565b604051610253919061149e565b60405180910390f35b61027660048036038101906102719190611100565b610b43565b005b610292600480360381019061028d9190611621565b610b55565b60405161029f9190610fd1565b60405180910390f35b6102c260048036038101906102bd9190611690565b610d59565b005b60055481565b60065481565b60036020528160005260406000206020528060005260406000206000915091509054906101000a900460ff1681565b60026020528060005260406000206000915090508060000154908060010160009054906101000a900473ffffffffffffffffffffffffffffffffffffffff16908060020160009054906101000a900473ffffffffffffffffffffffffffffffffffffffff1690806003018054610374906116ec565b80601f01602080910402602001604051908101604052809291908181526020018280546103a0906116ec565b80156103ed5780601f106103c2576101008083540402835291602001916103ed565b820191906000526020600020905b8154815290600101906020018083116103d057829003601f168201915b5050505050908060040154908060050154908060060154908060070160009054906101000a900460ff16905088565b610424610ddf565b61042e6000610e66565b565b60008060009054906101000a900473ffffffffffffffffffffffffffffffffffffffff16905090565b60045481565b610467610ddf565b8060068190555050565b60045481106104b5576040517f08c379a00000000000000000000000000000000000000000000000000000000081526004016104ac90611769565b60405180910390fd5b6000600260008381526020019081526020016000209050600060028111156104e0576104df6111e5565b5b8160070160009054906101000a900460ff166002811115610504576105036111e5565b5b14610544576040517f08c379a000000000000000000000000000000000000000000000000000000000815260040161053b906117d5565b60405180910390fd5b60055481600601546105569190611824565b4211610597576040517f08c379a000000000000000000000000000000000000000000000000000000000815260040161058e906118a4565b60405180910390fd5b6000816005015482600401546105ad9190611824565b90506006548110156105f4576040517f08c379a00000000000000000000000000000000000000000000000000000000081526004016105eb90611910565b60405180910390fd5b8160050154826004015411156106365760018260070160006101000a81548160ff0219169083600281111561062c5761062b6111e5565b5b0217905550610664565b60028260070160006101000a81548160ff0219169083600281111561065e5761065d6111e5565b5b02179055505b827f2ffcfee146bc0d5ff304c6b65111a0d485af9456dc64eee7d66ebdcc90b223ea8360070160009054906101000a900460ff166040516106a59190611930565b60405180910390a2505050565b60045482106106f6576040517f08c379a00000000000000000000000000000000000000000000000000000000081526004016106ed90611769565b60405180910390fd5b600060026000848152602001908152602001600020905060006002811115610721576107206111e5565b5b8160070160009054906101000a900460ff166002811115610745576107446111e5565b5b14610785576040517f08c379a000000000000000000000000000000000000000000000000000000000815260040161077c906117d5565b60405180910390fd5b6003600084815260200190815260200160002060003373ffffffffffffffffffffffffffffffffffffffff1673ffffffffffffffffffffffffffffffffffffffff16815260200190815260200160002060009054906101000a900460ff1615610823576040517f08c379a000000000000000000000000000000000000000000000000000000000815260040161081a90611997565b60405180910390fd5b60055481600601546108359190611824565b421115610877576040517f08c379a000000000000000000000000000000000000000000000000000000000815260040161086e90611a03565b60405180910390fd5b60016003600085815260200190815260200160002060003373ffffffffffffffffffffffffffffffffffffffff1673ffffffffffffffffffffffffffffffffffffffff16815260200190815260200160002060006101000a81548160ff0219169083151502179055508115610905578060040160008154809291906108fb90611a23565b9190505550610920565b80600501600081548092919061091a90611a23565b91905055505b3373ffffffffffffffffffffffffffffffffffffffff16837fe71fcdac32df1877c1700e7bda2a03157e20993363a28fc35ac495cefc76e4d48460405161096791906110e5565b60405180910390a3505050565b61097c610f32565b6002600083815260200190815260200160002060405180610100016040529081600082015481526020016001820160009054906101000a900473ffffffffffffffffffffffffffffffffffffffff1673ffffffffffffffffffffffffffffffffffffffff1673ffffffffffffffffffffffffffffffffffffffff1681526020016002820160009054906101000a900473ffffffffffffffffffffffffffffffffffffffff1673ffffffffffffffffffffffffffffffffffffffff1673ffffffffffffffffffffffffffffffffffffffff168152602001600382018054610a61906116ec565b80601f0160208091040260200160405190810160405280929190818152602001828054610a8d906116ec565b8015610ada5780601f10610aaf57610100808354040283529160200191610ada565b820191906000526020600020905b815481529060010190602001808311610abd57829003601f168201915b505050505081526020016004820154815260200160058201548152602001600682015481526020016007820160009054906101000a900460ff166002811115610b2657610b256111e5565b5b6002811115610b3857610b376111e5565b5b815250509050919050565b610b4b610ddf565b8060058190555050565b60008060046000815480929190610b6b90611a23565b9190505590506040518061010001604052808681526020013373ffffffffffffffffffffffffffffffffffffffff1681526020018573ffffffffffffffffffffffffffffffffffffffff168152602001848152602001600081526020016000815260200142815260200160006002811115610be957610be86111e5565b5b815250600260008381526020019081526020016000206000820151816000015560208201518160010160006101000a81548173ffffffffffffffffffffffffffffffffffffffff021916908373ffffffffffffffffffffffffffffffffffffffff16021790555060408201518160020160006101000a81548173ffffffffffffffffffffffffffffffffffffffff021916908373ffffffffffffffffffffffffffffffffffffffff1602179055506060820151816003019081610cac9190611c17565b506080820151816004015560a0820151816005015560c0820151816006015560e08201518160070160006101000a81548160ff02191690836002811115610cf657610cf56111e5565b5b02179055509050503373ffffffffffffffffffffffffffffffffffffffff1685827fc732fbd2e9c4d8595e6934924fab10cc8d6b9a37be8b99ab55564959f27fcf1387604051610d4691906112e1565b60405180910390a4809150509392505050565b610d61610ddf565b600073ffffffffffffffffffffffffffffffffffffffff168173ffffffffffffffffffffffffffffffffffffffff1603610dd35760006040517f1e4fbdf7000000000000000000000000000000000000000000000000000000008152600401610dca91906112e1565b60405180910390fd5b610ddc81610e66565b50565b610de7610f2a565b73ffffffffffffffffffffffffffffffffffffffff16610e05610430565b73ffffffffffffffffffffffffffffffffffffffff1614610e6457610e28610f2a565b6040517f118cdaa7000000000000000000000000000000000000000000000000000000008152600401610e5b91906112e1565b60405180910390fd5b565b60008060009054906101000a900473ffffffffffffffffffffffffffffffffffffffff169050816000806101000a81548173ffffffffffffffffffffffffffffffffffffffff021916908373ffffffffffffffffffffffffffffffffffffffff1602179055508173ffffffffffffffffffffffffffffffffffffffff168173ffffffffffffffffffffffffffffffffffffffff167f8be0079c531659141344cd1fd0a4f28419497f9722a3daafe3b4186f6b6457e060405160405180910390a35050565b600033905090565b60405180610100016040528060008019168152602001600073ffffffffffffffffffffffffffffffffffffffff168152602001600073ffffffffffffffffffffffffffffffffffffffff1681526020016060815260200160008152602001600081526020016000815260200160006002811115610fb257610fb16111e5565b5b81525090565b6000819050919050565b610fcb81610fb8565b82525050565b6000602082019050610fe66000830184610fc2565b92915050565b6000604051905090565b600080fd5b600080fd5b61100981610fb8565b811461101457600080fd5b50565b60008135905061102681611000565b92915050565b600073ffffffffffffffffffffffffffffffffffffffff82169050919050565b60006110578261102c565b9050919050565b6110678161104c565b811461107257600080fd5b50565b6000813590506110848161105e565b92915050565b600080604083850312156110a1576110a0610ff6565b5b60006110af85828601611017565b92505060206110c085828601611075565b9150509250929050565b60008115159050919050565b6110df816110ca565b82525050565b60006020820190506110fa60008301846110d6565b92915050565b60006020828403121561111657611115610ff6565b5b600061112484828501611017565b91505092915050565b6000819050919050565b6111408161112d565b82525050565b61114f8161104c565b82525050565b600081519050919050565b600082825260208201905092915050565b60005b8381101561118f578082015181840152602081019050611174565b60008484015250505050565b6000601f19601f8301169050919050565b60006111b782611155565b6111c18185611160565b93506111d1818560208601611171565b6111da8161119b565b840191505092915050565b7f4e487b7100000000000000000000000000000000000000000000000000000000600052602160045260246000fd5b60038110611225576112246111e5565b5b50565b600081905061123682611214565b919050565b600061124682611228565b9050919050565b6112568161123b565b82525050565b600061010082019050611272600083018b611137565b61127f602083018a611146565b61128c6040830189611146565b818103606083015261129e81886111ac565b90506112ad6080830187610fc2565b6112ba60a0830186610fc2565b6112c760c0830185610fc2565b6112d460e083018461124d565b9998505050505050505050565b60006020820190506112f66000830184611146565b92915050565b611305816110ca565b811461131057600080fd5b50565b600081359050611322816112fc565b92915050565b6000806040838503121561133f5761133e610ff6565b5b600061134d85828601611017565b925050602061135e85828601611313565b9150509250929050565b6113718161112d565b82525050565b6113808161104c565b82525050565b600082825260208201905092915050565b60006113a282611155565b6113ac8185611386565b93506113bc818560208601611171565b6113c58161119b565b840191505092915050565b6113d981610fb8565b82525050565b6113e88161123b565b82525050565b6000610100830160008301516114076000860182611368565b50602083015161141a6020860182611377565b50604083015161142d6040860182611377565b50606083015184820360608601526114458282611397565b915050608083015161145a60808601826113d0565b5060a083015161146d60a08601826113d0565b5060c083015161148060c08601826113d0565b5060e083015161149360e08601826113df565b508091505092915050565b600060208201905081810360008301526114b881846113ee565b905092915050565b6114c98161112d565b81146114d457600080fd5b50565b6000813590506114e6816114c0565b92915050565b600080fd5b600080fd5b7f4e487b7100000000000000000000000000000000000000000000000000000000600052604160045260246000fd5b61152e8261119b565b810181811067ffffffffffffffff8211171561154d5761154c6114f6565b5b80604052505050565b6000611560610fec565b905061156c8282611525565b919050565b600067ffffffffffffffff82111561158c5761158b6114f6565b5b6115958261119b565b9050602081019050919050565b82818337600083830152505050565b60006115c46115bf84611571565b611556565b9050828152602081018484840111156115e0576115df6114f1565b5b6115eb8482856115a2565b509392505050565b600082601f830112611608576116076114ec565b5b81356116188482602086016115b1565b91505092915050565b60008060006060848603121561163a57611639610ff6565b5b6000611648868287016114d7565b935050602061165986828701611075565b925050604084013567ffffffffffffffff81111561167a57611679610ffb565b5b611686868287016115f3565b9150509250925092565b6000602082840312156116a6576116a5610ff6565b5b60006116b484828501611075565b91505092915050565b7f4e487b7100000000000000000000000000000000000000000000000000000000600052602260045260246000fd5b6000600282049050600182168061170457607f821691505b602082108103611717576117166116bd565b5b50919050565b7f496e76616c696420646973707574652049440000000000000000000000000000600082015250565b6000611753601283611160565b915061175e8261171d565b602082019050919050565b6000602082019050818103600083015261178281611746565b9050919050565b7f44697370757465206e6f742070656e64696e6700000000000000000000000000600082015250565b60006117bf601383611160565b91506117ca82611789565b602082019050919050565b600060208201905081810360008301526117ee816117b2565b9050919050565b7f4e487b7100000000000000000000000000000000000000000000000000000000600052601160045260246000fd5b600061182f82610fb8565b915061183a83610fb8565b9250828201905080821115611852576118516117f5565b5b92915050565b7f566f74696e6720706572696f64206e6f7420656e646564000000000000000000600082015250565b600061188e601783611160565b915061189982611858565b602082019050919050565b600060208201905081810360008301526118bd81611881565b9050919050565b7f51756f72756d206e6f7420726561636865640000000000000000000000000000600082015250565b60006118fa601283611160565b9150611905826118c4565b602082019050919050565b60006020820190508181036000830152611929816118ed565b9050919050565b6000602082019050611945600083018461124d565b92915050565b7f416c726561647920766f74656400000000000000000000000000000000000000600082015250565b6000611981600d83611160565b915061198c8261194b565b602082019050919050565b600060208201905081810360008301526119b081611974565b9050919050565b7f566f74696e6720706572696f6420656e64656400000000000000000000000000600082015250565b60006119ed601383611160565b91506119f8826119b7565b602082019050919050565b60006020820190508181036000830152611a1c816119e0565b9050919050565b6000611a2e82610fb8565b91507fffffffffffffffffffffffffffffffffffffffffffffffffffffffffffffffff8203611a6057611a5f6117f5565b5b600182019050919050565b60008190508160005260206000209050919050565b60006020601f8301049050919050565b600082821b905092915050565b600060088302611acd7fffffffffffffffffffffffffffffffffffffffffffffffffffffffffffffffff82611a90565b611ad78683611a90565b95508019841693508086168417925050509392505050565b6000819050919050565b6000611b14611b0f611b0a84610fb8565b611aef565b610fb8565b9050919050565b6000819050919050565b611b2e83611af9565b611b42611b3a82611b1b565b848454611a9d565b825550505050565b600090565b611b57611b4a565b611b62818484611b25565b505050565b5b81811015611b8657611b7b600082611b4f565b600181019050611b68565b5050565b601f821115611bcb57611b9c81611a6b565b611ba584611a80565b81016020851015611bb4578190505b611bc8611bc085611a80565b830182611b67565b50505b505050565b600082821c905092915050565b6000611bee60001984600802611bd0565b1980831691505092915050565b6000611c078383611bdd565b9150826002028217905092915050565b611c2082611155565b67ffffffffffffffff811115611c3957611c386114f6565b5b611c4382546116ec565b611c4e828285611b8a565b600060209050601f831160018114611c815760008415611c6f578287015190505b611c798582611bfb565b865550611ce1565b601f198416611c8f86611a6b565b60005b82811015611cb757848901518255600182019150602085019450602081019050611c92565b86831015611cd45784890151611cd0601f891682611bdd565b8355505b6001600288020188555050505b50505050505056fea2646970667358221220a1fc49288b6abbe1a38bf511530f7987878993d278961bd2af15a86b2522b51164736f6c63430008140033",
  "linkReferences": {},
  "deployedLinkReferences": {}
}