{
  "_format": "hh-sol-artifact-1",
  "contractName": "RoyaltyManager",
  "sourceName": "contracts/core/RoyaltyManager.sol",
  "abi": [
    {
      "inputs": [],
      "stateMutability": "nonpayable",
      "type": "constructor"
    },
    {
      "inputs": [
        {
          "internalType": "address",
          "name": "owner",
          "type": "address"
        }
      ],
      "name": "OwnableInvalidOwner",
      "type": "error"
    },
    {
      "inputs": [
        {
          "internalType": "address",
          "name": "account",
          "type": "address"
        }
      ],
      "name": "OwnableUnauthorizedAccount",
      "type": "error"
    },
    {
      "inputs": [],
      "name": "ReentrancyGuardReentrantCall",
      "type": "error"
    },
    {
      "anonymous": false,
      "inputs": [
        {
          "indexed": true,
          "internalType": "bytes32",
          "name": "contentId",
          "type": "bytes32"
        },
        {
          "indexed": true,
          "internalType": "address",
          "name": "buyer",
          "type": "address"
        },
        {
          "indexed": false,
          "internalType": "uint256",
          "name": "amount",
          "type": "uint256"
        }
      ],
      "name": "LicensePurchased",
      "type": "event"
    },
    {
      "anonymous": false,
      "inputs": [
        {
          "indexed": true,
          "internalType": "address",
          "name": "previousOwner",
          "type": "address"
        },
        {
          "indexed": true,
          "internalType": "address",
          "name": "newOwner",
          "type": "address"
        }
      ],
      "name": "OwnershipTransferred",
      "type": "event"
    },
    {
      "anonymous": false,
      "inputs": [
        {
          "indexed": true,
          "internalType": "bytes32",
          "name": "contentId",
          "type": "bytes32"
        },
        {
          "indexed": true,
          "internalType": "address",
          "name": "creator",
          "type": "address"
        },
        {
          "indexed": false,
          "internalType": "uint256",
          "name": "amount",
          "type": "uint256"
        }
      ],
      "name": "RoyaltyPaid",
      "type": "event"
    },
    {
      "anonymous": false,
      "inputs": [
        {
          "indexed": true,
          "internalType": "bytes32",
          "name": "contentId",
          "type": "bytes32"
        },
        {
          "indexed": true,
          "internalType": "address",
          "name": "creator",
          "type": "address"
        },
        {
          "indexed": false,
          "internalType": "uint256",
          "name": "percentage",
          "type": "uint256"
        }
      ],
      "name": "RoyaltySet",
      "type": "event"
    },
    {
      "inputs": [],
      "name": "MAX_ROYALTY_PERCENTAGE",
      "outputs": [
        {
          "internalType": "uint256",
          "name": "",
          "type": "uint256"
        }
      ],
      "stateMutability": "view",
      "type": "function"
    },
    {
      "inputs": [
        {
          "internalType": "bytes32",
          "name": "_contentId",
          "type": "bytes32"
        }
      ],
      "name": "getRoyaltyInfo",
      "outputs": [
        {
          "components": [
            {
              "internalType": "address payable",
              "name": "creator",
              "type": "address"
            },
            {
              "internalType": "uint256",
              "name": "royaltyPercentage",
              "type": "uint256"
            },
            {
              "internalType": "uint256",
              "name": "totalEarned",
              "type": "uint256"
            }
          ],
          "internalType": "struct RoyaltyManager.RoyaltyInfo",
          "name": "",
          "type": "tuple"
        }
      ],
      "stateMutability": "view",
      "type": "function"
    },
    {
      "inputs": [
        {
          "internalType": "bytes32",
          "name": "_contentId",
          "type": "bytes32"
        },
        {
          "internalType": "address",
          "name": "_user",
          "type": "address"
        }
      ],
      "name": "hasContentLicense",
      "outputs": [
        {
          "internalType": "bool",
          "name": "",
          "type": "bool"
        }
      ],
      "stateMutability": "view",
      "type": "function"
    },
    {
      "inputs": [
        {
          "internalType": "bytes32",
          "name": "",
          "type": "bytes32"
        },
        {
          "internalType": "address",
          "name": "",
          "type": "address"
        }
      ],
      "name": "hasLicense",
      "outputs": [
        {
          "internalType": "bool",
          "name": "",
          "type": "bool"
        }
      ],
      "stateMutability": "view",
      "type": "function"
    },
    {
      "inputs": [],
      "name": "owner",
      "outputs": [
        {
          "internalType": "address",
          "name": "",
          "type": "address"
        }
      ],
      "stateMutability": "view",
      "type": "function"
    },
    {
      "inputs": [
        {
          "internalType": "bytes32",
          "name": "_contentId",
          "type": "bytes32"
        }
      ],
      "name": "purchaseLicense",
      "outputs": [],
      "stateMutability": "payable",
      "type": "function"
    },
    {
      "inputs": [],
      "name": "renounceOwnership",
      "outputs": [],
      "stateMutability": "nonpayable",
      "type": "function"
    },
    {
      "inputs": [
        {
          "internalType": "bytes32",
          "name": "",
          "type": "bytes32"
        }
      ],
      "name": "royalties",
      "outputs": [
        {
          "internalType": "address payable",
          "name": "creator",
          "type": "address"
        },
        {
          "internalType": "uint256",
          "name": "royaltyPercentage",
          "type": "uint256"
        },
        {
          "internalType": "uint256",
          "name": "totalEarned",
          "type": "uint256"
        }
      ],
      "stateMutability": "view",
      "type": "function"
    },
    {
      "inputs": [
        {
          "internalType": "bytes32",
          "name": "_contentId",
          "type": "bytes32"
        },
        {
          "internalType": "uint256",
          "name": "_royaltyPercentage",
          "type": "uint256"
        }
      ],
      "name": "setRoyalty",
      "outputs": [],
      "stateMutability": "nonpayable",
      "type": "function"
    },
    {
      "inputs": [
        {
          "internalType": "address",
          "name": "newOwner",
          "type": "address"
        }
      ],
      "name": "transferOwnership",
      "outputs": [],
      "stateMutability": "nonpayable",
      "type": "function"
    }
  ],
  "bytecode": "0x60806040523480156200001157600080fd5b5033600073ffffffffffffffffffffffffffffffffffffffff168173ffffffffffffffffffffffffffffffffffffffff1603620000885760006040517f1e4fbdf70000000000000000000000000000000000000000000000000000000081526004016200007f9190620001b0565b60405180910390fd5b6200009981620000a760201b60201c565b5060018081905550620001cd565b60008060009054906101000a900473ffffffffffffffffffffffffffffffffffffffff169050816000806101000a81548173ffffffffffffffffffffffffffffffffffffffff021916908373ffffffffffffffffffffffffffffffffffffffff1602179055508173ffffffffffffffffffffffffffffffffffffffff168173ffffffffffffffffffffffffffffffffffffffff167f8be0079c531659141344cd1fd0a4f28419497f9722a3daafe3b4186f6b6457e060405160405180910390a35050565b600073ffffffffffffffffffffffffffffffffffffffff82169050919050565b600062000198826200016b565b9050919050565b620001aa816200018b565b82525050565b6000602082019050620001c760008301846200019f565b92915050565b6113b080620001dd6000396000f3fe6080604052600436106100915760003560e01c8063b436676b11610059578063b436676b1461015e578063bb0ba7031461019b578063c2b1824a146101d8578063e05fbba014610201578063f2fde38b1461023e57610091565b80635edda4c914610096578063715018a6146100b25780638da5cb5b146100c95780639f5ac2da146100f4578063a9225d1b14610133575b600080fd5b6100b060048036038101906100ab9190610c97565b610267565b005b3480156100be57600080fd5b506100c7610662565b005b3480156100d557600080fd5b506100de610676565b6040516100eb9190610d05565b60405180910390f35b34801561010057600080fd5b5061011b60048036038101906101169190610c97565b61069f565b60405161012a93929190610d5a565b60405180910390f35b34801561013f57600080fd5b506101486106e9565b6040516101559190610d91565b60405180910390f35b34801561016a57600080fd5b5061018560048036038101906101809190610dd8565b6106ef565b6040516101929190610e33565b60405180910390f35b3480156101a757600080fd5b506101c260048036038101906101bd9190610dd8565b610757565b6040516101cf9190610e33565b60405180910390f35b3480156101e457600080fd5b506101ff60048036038101906101fa9190610e7a565b610786565b005b34801561020d57600080fd5b5061022860048036038101906102239190610c97565b610966565b6040516102359190610f1a565b60405180910390f35b34801561024a57600080fd5b5061026560048036038101906102609190610f35565b6109fd565b005b61026f610a83565b600034116102b2576040517f08c379a00000000000000000000000000000000000000000000000000000000081526004016102a990610fbf565b60405180910390fd5b600073ffffffffffffffffffffffffffffffffffffffff166002600083815260200190815260200160002060000160009054906101000a900473ffffffffffffffffffffffffffffffffffffffff1673ffffffffffffffffffffffffffffffffffffffff1603610357576040517f08c379a000000000000000000000000000000000000000000000000000000000815260040161034e9061102b565b60405180910390fd5b6003600082815260200190815260200160002060003373ffffffffffffffffffffffffffffffffffffffff1673ffffffffffffffffffffffffffffffffffffffff16815260200190815260200160002060009054906101000a900460ff16156103f5576040517f08c379a00000000000000000000000000000000000000000000000000000000081526004016103ec90611097565b60405180910390fd5b6000600260008381526020019081526020016000209050600061271082600101543461042191906110e6565b61042b9190611157565b90506000813461043b9190611188565b90508183600201600082825461045191906111bc565b9250508190555060016003600086815260200190815260200160002060003373ffffffffffffffffffffffffffffffffffffffff1673ffffffffffffffffffffffffffffffffffffffff16815260200190815260200160002060006101000a81548160ff02191690831515021790555060008360000160009054906101000a900473ffffffffffffffffffffffffffffffffffffffff1673ffffffffffffffffffffffffffffffffffffffff168360405161050b90611221565b60006040518083038185875af1925050503d8060008114610548576040519150601f19603f3d011682016040523d82523d6000602084013e61054d565b606091505b5050905080610591576040517f08c379a000000000000000000000000000000000000000000000000000000000815260040161058890611282565b60405180910390fd5b3373ffffffffffffffffffffffffffffffffffffffff16857fe449247e2c1c8f05fa54b49f82585bb1934bfdc32dc160a7627363b11f920d88346040516105d89190610d91565b60405180910390a38360000160009054906101000a900473ffffffffffffffffffffffffffffffffffffffff1673ffffffffffffffffffffffffffffffffffffffff16857fc49953870abc096c86cd42113aa5a20159d33d272c9c2ce41e27e48c72e7e7da8560405161064b9190610d91565b60405180910390a35050505061065f610ac9565b50565b61066a610ad2565b6106746000610b59565b565b60008060009054906101000a900473ffffffffffffffffffffffffffffffffffffffff16905090565b60026020528060005260406000206000915090508060000160009054906101000a900473ffffffffffffffffffffffffffffffffffffffff16908060010154908060020154905083565b61138881565b60006003600084815260200190815260200160002060008373ffffffffffffffffffffffffffffffffffffffff1673ffffffffffffffffffffffffffffffffffffffff16815260200190815260200160002060009054906101000a900460ff16905092915050565b60036020528160005260406000206020528060005260406000206000915091509054906101000a900460ff1681565b6113888111156107cb576040517f08c379a00000000000000000000000000000000000000000000000000000000081526004016107c2906112ee565b60405180910390fd5b600073ffffffffffffffffffffffffffffffffffffffff166002600084815260200190815260200160002060000160009054906101000a900473ffffffffffffffffffffffffffffffffffffffff1673ffffffffffffffffffffffffffffffffffffffff1614610870576040517f08c379a00000000000000000000000000000000000000000000000000000000081526004016108679061135a565b60405180910390fd5b60405180606001604052803373ffffffffffffffffffffffffffffffffffffffff16815260200182815260200160008152506002600084815260200190815260200160002060008201518160000160006101000a81548173ffffffffffffffffffffffffffffffffffffffff021916908373ffffffffffffffffffffffffffffffffffffffff16021790555060208201518160010155604082015181600201559050503373ffffffffffffffffffffffffffffffffffffffff16827f077b008aa61568a3f3512075067657c14dfc0006748237efc66b8a23e2fe33cf8360405161095a9190610d91565b60405180910390a35050565b61096e610c25565b600260008381526020019081526020016000206040518060600160405290816000820160009054906101000a900473ffffffffffffffffffffffffffffffffffffffff1673ffffffffffffffffffffffffffffffffffffffff1673ffffffffffffffffffffffffffffffffffffffff168152602001600182015481526020016002820154815250509050919050565b610a05610ad2565b600073ffffffffffffffffffffffffffffffffffffffff168173ffffffffffffffffffffffffffffffffffffffff1603610a775760006040517f1e4fbdf7000000000000000000000000000000000000000000000000000000008152600401610a6e9190610d05565b60405180910390fd5b610a8081610b59565b50565b600260015403610abf576040517f3ee5aeb500000000000000000000000000000000000000000000000000000000815260040160405180910390fd5b6002600181905550565b60018081905550565b610ada610c1d565b73ffffffffffffffffffffffffffffffffffffffff16610af8610676565b73ffffffffffffffffffffffffffffffffffffffff1614610b5757610b1b610c1d565b6040517f118cdaa7000000000000000000000000000000000000000000000000000000008152600401610b4e9190610d05565b60405180910390fd5b565b60008060009054906101000a900473ffffffffffffffffffffffffffffffffffffffff169050816000806101000a81548173ffffffffffffffffffffffffffffffffffffffff021916908373ffffffffffffffffffffffffffffffffffffffff1602179055508173ffffffffffffffffffffffffffffffffffffffff168173ffffffffffffffffffffffffffffffffffffffff167f8be0079c531659141344cd1fd0a4f28419497f9722a3daafe3b4186f6b6457e060405160405180910390a35050565b600033905090565b6040518060600160405280600073ffffffffffffffffffffffffffffffffffffffff16815260200160008152602001600081525090565b600080fd5b6000819050919050565b610c7481610c61565b8114610c7f57600080fd5b50565b600081359050610c9181610c6b565b92915050565b600060208284031215610cad57610cac610c5c565b5b6000610cbb84828501610c82565b91505092915050565b600073ffffffffffffffffffffffffffffffffffffffff82169050919050565b6000610cef82610cc4565b9050919050565b610cff81610ce4565b82525050565b6000602082019050610d1a6000830184610cf6565b92915050565b6000610d2b82610cc4565b9050919050565b610d3b81610d20565b82525050565b6000819050919050565b610d5481610d41565b82525050565b6000606082019050610d6f6000830186610d32565b610d7c6020830185610d4b565b610d896040830184610d4b565b949350505050565b6000602082019050610da66000830184610d4b565b92915050565b610db581610ce4565b8114610dc057600080fd5b50565b600081359050610dd281610dac565b92915050565b60008060408385031215610def57610dee610c5c565b5b6000610dfd85828601610c82565b9250506020610e0e85828601610dc3565b9150509250929050565b60008115159050919050565b610e2d81610e18565b82525050565b6000602082019050610e486000830184610e24565b92915050565b610e5781610d41565b8114610e6257600080fd5b50565b600081359050610e7481610e4e565b92915050565b60008060408385031215610e9157610e90610c5c565b5b6000610e9f85828601610c82565b9250506020610eb085828601610e65565b9150509250929050565b610ec381610d20565b82525050565b610ed281610d41565b82525050565b606082016000820151610eee6000850182610eba565b506020820151610f016020850182610ec9565b506040820151610f146040850182610ec9565b50505050565b6000606082019050610f2f6000830184610ed8565b92915050565b600060208284031215610f4b57610f4a610c5c565b5b6000610f5984828501610dc3565b91505092915050565b600082825260208201905092915050565b7f5061796d656e7420726571756972656400000000000000000000000000000000600082015250565b6000610fa9601083610f62565b9150610fb482610f73565b602082019050919050565b60006020820190508181036000830152610fd881610f9c565b9050919050565b7f436f6e74656e74206e6f7420666f756e64000000000000000000000000000000600082015250565b6000611015601183610f62565b915061102082610fdf565b602082019050919050565b6000602082019050818103600083015261104481611008565b9050919050565b7f4c6963656e736520616c7265616479206f776e65640000000000000000000000600082015250565b6000611081601583610f62565b915061108c8261104b565b602082019050919050565b600060208201905081810360008301526110b081611074565b9050919050565b7f4e487b7100000000000000000000000000000000000000000000000000000000600052601160045260246000fd5b60006110f182610d41565b91506110fc83610d41565b925082820261110a81610d41565b91508282048414831517611121576111206110b7565b5b5092915050565b7f4e487b7100000000000000000000000000000000000000000000000000000000600052601260045260246000fd5b600061116282610d41565b915061116d83610d41565b92508261117d5761117c611128565b5b828204905092915050565b600061119382610d41565b915061119e83610d41565b92508282039050818111156111b6576111b56110b7565b5b92915050565b60006111c782610d41565b91506111d283610d41565b92508282019050808211156111ea576111e96110b7565b5b92915050565b600081905092915050565b50565b600061120b6000836111f0565b9150611216826111fb565b600082019050919050565b600061122c826111fe565b9150819050919050565b7f526f79616c7479207472616e73666572206661696c6564000000000000000000600082015250565b600061126c601783610f62565b915061127782611236565b602082019050919050565b6000602082019050818103600083015261129b8161125f565b9050919050565b7f526f79616c747920746f6f206869676800000000000000000000000000000000600082015250565b60006112d8601083610f62565b91506112e3826112a2565b602082019050919050565b60006020820190508181036000830152611307816112cb565b9050919050565b7f526f79616c747920616c72656164792073657400000000000000000000000000600082015250565b6000611344601383610f62565b915061134f8261130e565b602082019050919050565b6000602082019050818103600083015261137381611337565b905091905056fea26469706673582212201a063b695ef5410c93e6a87d5becb6e005dc3435aaad2ca140975d5ee8cb721564736f6c63430008140033",
  "linkReferences": {},
  "deployedLinkReferences": {}
}